{
  "_format": "hh-sol-artifact-1",
  "contractName": "HeartChain",
  "sourceName": "contracts/HeartChain.sol",
  "abi": [
    {
      "anonymous": false,
      "inputs": [
        {
          "indexed": true,
          "internalType": "uint256",
          "name": "id",
          "type": "uint256"
        }
      ],
      "name": "CampaignCompleted",
      "type": "event"
    },
    {
      "anonymous": false,
      "inputs": [
        {
          "indexed": true,
          "internalType": "uint256",
          "name": "id",
          "type": "uint256"
        },
        {
          "indexed": true,
          "internalType": "address",
          "name": "creator",
          "type": "address"
        },
        {
          "indexed": false,
          "internalType": "uint256",
          "name": "goal",
          "type": "uint256"
        },
        {
          "indexed": false,
          "internalType": "string",
          "name": "metadataCID",
          "type": "string"
        }
      ],
      "name": "CampaignCreated",
      "type": "event"
    },
    {
      "anonymous": false,
      "inputs": [
        {
          "indexed": true,
          "internalType": "uint256",
          "name": "id",
          "type": "uint256"
        },
        {
          "indexed": true,
          "internalType": "address",
          "name": "donor",
          "type": "address"
        },
        {
          "indexed": false,
          "internalType": "uint256",
          "name": "amount",
          "type": "uint256"
        }
      ],
      "name": "DonationReceived",
      "type": "event"
    },
    {
      "inputs": [],
      "name": "campaignCount",
      "outputs": [
        {
          "internalType": "uint256",
          "name": "",
          "type": "uint256"
        }
      ],
      "stateMutability": "view",
      "type": "function"
    },
    {
      "inputs": [
        {
          "internalType": "uint256",
          "name": "",
          "type": "uint256"
        }
      ],
      "name": "campaigns",
      "outputs": [
        {
          "internalType": "address",
          "name": "creator",
          "type": "address"
        },
        {
          "internalType": "uint256",
          "name": "goal",
          "type": "uint256"
        },
        {
          "internalType": "uint256",
          "name": "raised",
          "type": "uint256"
        },
        {
          "internalType": "bool",
          "name": "completed",
          "type": "bool"
        },
        {
          "internalType": "string",
          "name": "metadataCID",
          "type": "string"
        }
      ],
      "stateMutability": "view",
      "type": "function"
    },
    {
      "inputs": [
        {
          "internalType": "uint256",
          "name": "_id",
          "type": "uint256"
        }
      ],
      "name": "completeCampaign",
      "outputs": [],
      "stateMutability": "nonpayable",
      "type": "function"
    },
    {
      "inputs": [
        {
          "internalType": "uint256",
          "name": "_goal",
          "type": "uint256"
        },
        {
          "internalType": "string",
          "name": "_metadataCID",
          "type": "string"
        }
      ],
      "name": "createCampaign",
      "outputs": [],
      "stateMutability": "nonpayable",
      "type": "function"
    },
    {
      "inputs": [
        {
          "internalType": "uint256",
          "name": "_id",
          "type": "uint256"
        }
      ],
      "name": "donate",
      "outputs": [],
      "stateMutability": "payable",
      "type": "function"
    }
  ],
  "bytecode": "0x608060405234801561001057600080fd5b50610ec7806100206000396000f3fe60806040526004361061004a5760003560e01c8063141961bc1461004f5780634220d656146100905780637274e30d146100b95780639553f180146100e4578063f14faf6f1461010d575b600080fd5b34801561005b57600080fd5b5061007660048036038101906100719190610659565b610129565b604051610087959493929190610781565b60405180910390f35b34801561009c57600080fd5b506100b760048036038101906100b29190610840565b610214565b005b3480156100c557600080fd5b506100ce6103f6565b6040516100db91906108a0565b60405180910390f35b3480156100f057600080fd5b5061010b60048036038101906101069190610659565b6103fc565b005b61012760048036038101906101229190610659565b6104f2565b005b60006020528060005260406000206000915090508060000160009054906101000a900473ffffffffffffffffffffffffffffffffffffffff16908060010154908060020154908060030160009054906101000a900460ff1690806004018054610191906108ea565b80601f01602080910402602001604051908101604052809291908181526020018280546101bd906108ea565b801561020a5780601f106101df5761010080835404028352916020019161020a565b820191906000526020600020905b8154815290600101906020018083116101ed57829003601f168201915b5050505050905085565b60008311610257576040517f08c379a000000000000000000000000000000000000000000000000000000000815260040161024e90610967565b60405180910390fd5b6001600081548092919061026a906109b6565b91905055506040518060a001604052803373ffffffffffffffffffffffffffffffffffffffff1681526020018481526020016000815260200160001515815260200183838080601f016020809104026020016040519081016040528093929190818152602001838380828437600081840152601f19601f82011690508083019250505050505050815250600080600154815260200190815260200160002060008201518160000160006101000a81548173ffffffffffffffffffffffffffffffffffffffff021916908373ffffffffffffffffffffffffffffffffffffffff160217905550602082015181600101556040820151816002015560608201518160030160006101000a81548160ff02191690831515021790555060808201518160040190816103989190610bd9565b509050503373ffffffffffffffffffffffffffffffffffffffff166001547fa0b75b3d48f1d411faf8eb6b3a6985271fc12369efb160c320304fbcfdc3f3b38585856040516103e993929190610ce7565b60405180910390a3505050565b60015481565b600080600083815260200190815260200160002090508060000160009054906101000a900473ffffffffffffffffffffffffffffffffffffffff1673ffffffffffffffffffffffffffffffffffffffff163373ffffffffffffffffffffffffffffffffffffffff16146104a4576040517f08c379a000000000000000000000000000000000000000000000000000000000815260040161049b90610d65565b60405180910390fd5b60018160030160006101000a81548160ff021916908315150217905550817fbdef6a2e3aa892961a2dab48272f72f2bc1c7121eb1c0ed7e4a58e081c1e4be060405160405180910390a25050565b60008111801561050457506001548111155b610543576040517f08c379a000000000000000000000000000000000000000000000000000000000815260040161053a90610dd1565b60405180910390fd5b600080600083815260200190815260200160002090508060030160009054906101000a900460ff16156105ab576040517f08c379a00000000000000000000000000000000000000000000000000000000081526004016105a290610e3d565b60405180910390fd5b348160020160008282546105bf9190610e5d565b925050819055503373ffffffffffffffffffffffffffffffffffffffff16827f0b5b4c52969ff7329ecf7ee536409fda87812b15a8622bc6e8cdeab3aee14a263460405161060d91906108a0565b60405180910390a35050565b600080fd5b600080fd5b6000819050919050565b61063681610623565b811461064157600080fd5b50565b6000813590506106538161062d565b92915050565b60006020828403121561066f5761066e610619565b5b600061067d84828501610644565b91505092915050565b600073ffffffffffffffffffffffffffffffffffffffff82169050919050565b60006106b182610686565b9050919050565b6106c1816106a6565b82525050565b6106d081610623565b82525050565b60008115159050919050565b6106eb816106d6565b82525050565b600081519050919050565b600082825260208201905092915050565b60005b8381101561072b578082015181840152602081019050610710565b60008484015250505050565b6000601f19601f8301169050919050565b6000610753826106f1565b61075d81856106fc565b935061076d81856020860161070d565b61077681610737565b840191505092915050565b600060a08201905061079660008301886106b8565b6107a360208301876106c7565b6107b060408301866106c7565b6107bd60608301856106e2565b81810360808301526107cf8184610748565b90509695505050505050565b600080fd5b600080fd5b600080fd5b60008083601f840112610800576107ff6107db565b5b8235905067ffffffffffffffff81111561081d5761081c6107e0565b5b602083019150836001820283011115610839576108386107e5565b5b9250929050565b60008060006040848603121561085957610858610619565b5b600061086786828701610644565b935050602084013567ffffffffffffffff8111156108885761088761061e565b5b610894868287016107ea565b92509250509250925092565b60006020820190506108b560008301846106c7565b92915050565b7f4e487b7100000000000000000000000000000000000000000000000000000000600052602260045260246000fd5b6000600282049050600182168061090257607f821691505b602082108103610915576109146108bb565b5b50919050565b7f476f616c206d7573742062652067726561746572207468616e20300000000000600082015250565b6000610951601b836106fc565b915061095c8261091b565b602082019050919050565b6000602082019050818103600083015261098081610944565b9050919050565b7f4e487b7100000000000000000000000000000000000000000000000000000000600052601160045260246000fd5b60006109c182610623565b91507fffffffffffffffffffffffffffffffffffffffffffffffffffffffffffffffff82036109f3576109f2610987565b5b600182019050919050565b7f4e487b7100000000000000000000000000000000000000000000000000000000600052604160045260246000fd5b60008190508160005260206000209050919050565b60006020601f8301049050919050565b600082821b905092915050565b600060088302610a8f7fffffffffffffffffffffffffffffffffffffffffffffffffffffffffffffffff82610a52565b610a998683610a52565b95508019841693508086168417925050509392505050565b6000819050919050565b6000610ad6610ad1610acc84610623565b610ab1565b610623565b9050919050565b6000819050919050565b610af083610abb565b610b04610afc82610add565b848454610a5f565b825550505050565b600090565b610b19610b0c565b610b24818484610ae7565b505050565b5b81811015610b4857610b3d600082610b11565b600181019050610b2a565b5050565b601f821115610b8d57610b5e81610a2d565b610b6784610a42565b81016020851015610b76578190505b610b8a610b8285610a42565b830182610b29565b50505b505050565b600082821c905092915050565b6000610bb060001984600802610b92565b1980831691505092915050565b6000610bc98383610b9f565b9150826002028217905092915050565b610be2826106f1565b67ffffffffffffffff811115610bfb57610bfa6109fe565b5b610c0582546108ea565b610c10828285610b4c565b600060209050601f831160018114610c435760008415610c31578287015190505b610c3b8582610bbd565b865550610ca3565b601f198416610c5186610a2d565b60005b82811015610c7957848901518255600182019150602085019450602081019050610c54565b86831015610c965784890151610c92601f891682610b9f565b8355505b6001600288020188555050505b505050505050565b82818337600083830152505050565b6000610cc683856106fc565b9350610cd3838584610cab565b610cdc83610737565b840190509392505050565b6000604082019050610cfc60008301866106c7565b8181036020830152610d0f818486610cba565b9050949350505050565b7f4f6e6c792063726561746f722063616e20636f6d706c65746500000000000000600082015250565b6000610d4f6019836106fc565b9150610d5a82610d19565b602082019050919050565b60006020820190508181036000830152610d7e81610d42565b9050919050565b7f496e76616c69642063616d706169676e20494400000000000000000000000000600082015250565b6000610dbb6013836106fc565b9150610dc682610d85565b602082019050919050565b60006020820190508181036000830152610dea81610dae565b9050919050565b7f43616d706169676e20697320636c6f7365640000000000000000000000000000600082015250565b6000610e276012836106fc565b9150610e3282610df1565b602082019050919050565b60006020820190508181036000830152610e5681610e1a565b9050919050565b6000610e6882610623565b9150610e7383610623565b9250828201905080821115610e8b57610e8a610987565b5b9291505056fea2646970667358221220183ccbb8783f908bef4746ae3603739fa13e46fbd8cecf948a48853e1f44c1bc64736f6c63430008130033",
  "linkReferences": {},
  "deployedLinkReferences": {}
}